{
  "transactions": [
    {
      "hash": "0x1a55ba1b2c650a0a8698524fc340ca8b865b84534b2ca7bc607b0f60d738132e",
      "transactionType": "CALL",
      "contractName": null,
      "contractAddress": "0xc9e3a0b2d65cbb151fa149608f99791543290d6d",
      "function": "grantRole(bytes32,address)",
      "arguments": [
        "0x74f7a545c65c11839a48d7453738b30c295408df2d944516167556759ddc6d06",
        "0xFFf8271929DC256C116cCB46C69f7C5F3D703Da6"
      ],
      "transaction": {
        "from": "0xbe92f2692f42580300fd8d0ee198b5bbbe303e78",
        "to": "0xc9e3a0b2d65cbb151fa149608f99791543290d6d",
        "gas": "0x11623",
        "value": "0x0",
        "input": "0x2f2ff15d74f7a545c65c11839a48d7453738b30c295408df2d944516167556759ddc6d06000000000000000000000000fff8271929dc256c116ccb46c69f7c5f3d703da6",
        "nonce": "0x79",
        "chainId": "0x14a34"
      },
      "additionalContracts": [],
      "isFixedGasLimit": false
    },
    {
      "hash": "0xb7807f739baafdd70b393ac865fea8315d5a5bb9185ee6a80a9695746a0d82ef",
      "transactionType": "CALL",
      "contractName": null,
      "contractAddress": "0xc9e3a0b2d65cbb151fa149608f99791543290d6d",
      "function": "grantRole(bytes32,address)",
      "arguments": [
        "0x74f7a545c65c11839a48d7453738b30c295408df2d944516167556759ddc6d06",
        "0xe7727fa8519fF9E30a87F527d928d2a3edC742Ee"
      ],
      "transaction": {
        "from": "0xbe92f2692f42580300fd8d0ee198b5bbbe303e78",
        "to": "0xc9e3a0b2d65cbb151fa149608f99791543290d6d",
        "gas": "0x11623",
        "value": "0x0",
        "input": "0x2f2ff15d74f7a545c65c11839a48d7453738b30c295408df2d944516167556759ddc6d06000000000000000000000000e7727fa8519ff9e30a87f527d928d2a3edc742ee",
        "nonce": "0x7a",
        "chainId": "0x14a34"
      },
      "additionalContracts": [],
      "isFixedGasLimit": false
    },
    {
      "hash": "0x332c45d08a7203848546706ab8401a46f6b5fed14c7b3712fd2394c3bf8a6c52",
      "transactionType": "CALL",
      "contractName": null,
      "contractAddress": "0xc9e3a0b2d65cbb151fa149608f99791543290d6d",
      "function": "grantRole(bytes32,address)",
      "arguments": [
        "0x74f7a545c65c11839a48d7453738b30c295408df2d944516167556759ddc6d06",
        "0xf8050D3E93a4448721c1FbE81f3c2b0b49a728C8"
      ],
      "transaction": {
        "from": "0xbe92f2692f42580300fd8d0ee198b5bbbe303e78",
        "to": "0xc9e3a0b2d65cbb151fa149608f99791543290d6d",
        "gas": "0x11623",
        "value": "0x0",
        "input": "0x2f2ff15d74f7a545c65c11839a48d7453738b30c295408df2d944516167556759ddc6d06000000000000000000000000f8050d3e93a4448721c1fbe81f3c2b0b49a728c8",
        "nonce": "0x7b",
        "chainId": "0x14a34"
      },
      "additionalContracts": [],
      "isFixedGasLimit": false
    }
  ],
  "receipts": [
    {
      "status": "0x1",
      "cumulativeGasUsed": "0x8eab7b",
      "logs": [
        {
          "address": "0xc9e3a0b2d65cbb151fa149608f99791543290d6d",
          "topics": [
            "0x2f8788117e7eff1d82e926ec794901d17c78024a50270940304540a733656f0d",
            "0x74f7a545c65c11839a48d7453738b30c295408df2d944516167556759ddc6d06",
            "0x000000000000000000000000fff8271929dc256c116ccb46c69f7c5f3d703da6",
            "0x000000000000000000000000be92f2692f42580300fd8d0ee198b5bbbe303e78"
          ],
          "data": "0x",
          "blockHash": "0xa57376b66cf7aeb1f08d6b1bf14148f20ef1a8d2327e4668e66f3ee9358239c3",
          "blockNumber": "0x15117c0",
          "transactionHash": "0x1a55ba1b2c650a0a8698524fc340ca8b865b84534b2ca7bc607b0f60d738132e",
          "transactionIndex": "0x3d",
          "logIndex": "0xb9",
          "removed": false
        }
      ],
      "logsBloom": "0x00000004000000000000000000000000000000000000000000000000000000200000000000000000000000000000000000000000000000000000000000000000000000000000100000000000400000000000000000000000000000000000000800000000000000002000000000000000000000000000000400000000000000000000400000000000000000000000000000000000000000000000000000000000000000000000000000000200000000000000010000000000001000000000000000000000000000000000000000000000000000000000000100501000000000000000000000000000000000000000000000000000000000000000000000000000",
      "type": "0x2",
      "transactionHash": "0x1a55ba1b2c650a0a8698524fc340ca8b865b84534b2ca7bc607b0f60d738132e",
      "transactionIndex": "0x3d",
      "blockHash": "0xa57376b66cf7aeb1f08d6b1bf14148f20ef1a8d2327e4668e66f3ee9358239c3",
      "blockNumber": "0x15117c0",
      "gasUsed": "0xc95f",
      "effectiveGasPrice": "0xb9b3c",
      "from": "0xbe92f2692f42580300fd8d0ee198b5bbbe303e78",
      "to": "0xc9e3a0b2d65cbb151fa149608f99791543290d6d",
      "contractAddress": null,
      "l1BaseFeeScalar": "0x44d",
      "l1BlobBaseFee": "0x1",
      "l1BlobBaseFeeScalar": "0xa118b",
      "l1Fee": "0x283eecd5",
      "l1GasPrice": "0x157d66d8",
      "l1GasUsed": "0x6a4"
    },
    {
      "status": "0x1",
      "cumulativeGasUsed": "0x93134a",
      "logs": [
        {
          "address": "0xc9e3a0b2d65cbb151fa149608f99791543290d6d",
          "topics": [
            "0x2f8788117e7eff1d82e926ec794901d17c78024a50270940304540a733656f0d",
            "0x74f7a545c65c11839a48d7453738b30c295408df2d944516167556759ddc6d06",
            "0x000000000000000000000000e7727fa8519ff9e30a87f527d928d2a3edc742ee",
            "0x000000000000000000000000be92f2692f42580300fd8d0ee198b5bbbe303e78"
          ],
          "data": "0x",
          "blockHash": "0xa57376b66cf7aeb1f08d6b1bf14148f20ef1a8d2327e4668e66f3ee9358239c3",
          "blockNumber": "0x15117c0",
          "transactionHash": "0xb7807f739baafdd70b393ac865fea8315d5a5bb9185ee6a80a9695746a0d82ef",
          "transactionIndex": "0x3f",
          "logIndex": "0xc1",
          "removed": false
        }
      ],
      "logsBloom": "0x00000004000000000000000000000000000000000000000000000000000000000100000000000000000000000000000000000000000000000000000000000000000000000000100000000000400000000000000000000040000000000000000800000000000000002000000000000000000000000000000400000000000000000000000000000000000000000000000000000000000000000000000000000000000000000000000008000200000000000000010000000000001000000000000000000000000000000000000000000000000000000000000100500000000000000000000000000000000000000000000000000000000000000000000000000000",
      "type": "0x2",
      "transactionHash": "0xb7807f739baafdd70b393ac865fea8315d5a5bb9185ee6a80a9695746a0d82ef",
      "transactionIndex": "0x3f",
      "blockHash": "0xa57376b66cf7aeb1f08d6b1bf14148f20ef1a8d2327e4668e66f3ee9358239c3",
      "blockNumber": "0x15117c0",
      "gasUsed": "0xc95f",
      "effectiveGasPrice": "0xb9b3c",
      "from": "0xbe92f2692f42580300fd8d0ee198b5bbbe303e78",
      "to": "0xc9e3a0b2d65cbb151fa149608f99791543290d6d",
      "contractAddress": null,
      "l1BaseFeeScalar": "0x44d",
      "l1BlobBaseFee": "0x1",
      "l1BlobBaseFeeScalar": "0xa118b",
      "l1Fee": "0x283eecd5",
      "l1GasPrice": "0x157d66d8",
      "l1GasUsed": "0x6a4"
    },
    {
      "status": "0x1",
      "cumulativeGasUsed": "0x93dca9",
      "logs": [
        {
          "address": "0xc9e3a0b2d65cbb151fa149608f99791543290d6d",
          "topics": [
            "0x2f8788117e7eff1d82e926ec794901d17c78024a50270940304540a733656f0d",
            "0x74f7a545c65c11839a48d7453738b30c295408df2d944516167556759ddc6d06",
            "0x000000000000000000000000f8050d3e93a4448721c1fbe81f3c2b0b49a728c8",
            "0x000000000000000000000000be92f2692f42580300fd8d0ee198b5bbbe303e78"
          ],
          "data": "0x",
          "blockHash": "0xa57376b66cf7aeb1f08d6b1bf14148f20ef1a8d2327e4668e66f3ee9358239c3",
          "blockNumber": "0x15117c0",
          "transactionHash": "0x332c45d08a7203848546706ab8401a46f6b5fed14c7b3712fd2394c3bf8a6c52",
          "transactionIndex": "0x40",
          "logIndex": "0xc2",
          "removed": false
        }
      ],
      "logsBloom": "0x00000004000000000000000000000000000000000000000000000000000000000000000000000000000000000000000000000000000000000000000000000000000020000000100000000000400000000000000000000000000000000000000800000000000000002000000000000000000000000000000400000000000000000000000000000000000000000000000000000000000000000000000000000000000000000000000000000200000000000000010000000000001000000000000000000000000000000000000000000000000000000000000100500000000000000000000000000000000000000000000000000000000000400000000000000000",
      "type": "0x2",
      "transactionHash": "0x332c45d08a7203848546706ab8401a46f6b5fed14c7b3712fd2394c3bf8a6c52",
      "transactionIndex": "0x40",
      "blockHash": "0xa57376b66cf7aeb1f08d6b1bf14148f20ef1a8d2327e4668e66f3ee9358239c3",
      "blockNumber": "0x15117c0",
      "gasUsed": "0xc95f",
      "effectiveGasPrice": "0xb9b3c",
      "from": "0xbe92f2692f42580300fd8d0ee198b5bbbe303e78",
      "to": "0xc9e3a0b2d65cbb151fa149608f99791543290d6d",
      "contractAddress": null,
      "l1BaseFeeScalar": "0x44d",
      "l1BlobBaseFee": "0x1",
      "l1BlobBaseFeeScalar": "0xa118b",
      "l1Fee": "0x283eecd5",
      "l1GasPrice": "0x157d66d8",
      "l1GasUsed": "0x6a4"
    }
  ],
  "libraries": [],
  "pending": [],
  "returns": {},
  "timestamp": 1739951714,
  "chain": 84532,
  "commit": "9cabc5b"
}